:1008BB007590FE1208DB1208008F0AE50A60F7B488
:1008CB0001F4050BE50BC3940240EBE4F50B80E65A
:03000B0002086781
:10086700C0E0C0D075D000C000C007758A18758C6D
:10087700FC0509E50970020508C394F4E50894012D
:100887004029750800750900E50B700DAF907801D8
:10089700EF08800123D8FDF590E50BB4010DAF906B
:1008A7007801EF08800103D8FDF590D007D000D07C
:0408B700D0D0E0328B
:1008DB005389F0438901758A18758CFCC28DD28CB3
:0708EB00D2A9D2AFC2B9226D
:1008000020B4167F147E001208F220B40C7F147EF0
:10081000001208F2750C0180F120B5167F147E00DD
:100820001208F220B50C7F147E001208F2750C023B
:1008300080F120B6167F147E001208F220B60C7FDD
:10084000147E001208F2750C0380F120B7167F1495
:100850007E001208F220B70C7F147E001208F27599
:060860000C0480F1AF0C56
:01086600226F
:1008F200EF1FAC0670011E4C600A7D027CEFDCFE2D
:04090200DDFC80ECAC
:0109060022CE
:03000000020907EB
:0C090700787FE4F6D8FD75810C0208BB77
:00000001FF
